{
  "_format": "hh-sol-artifact-1",
  "contractName": "WavePortal",
  "sourceName": "contracts/WavePortal.sol",
  "abi": [
    {
      "inputs": [],
      "stateMutability": "nonpayable",
      "type": "constructor"
    },
    {
      "anonymous": false,
      "inputs": [
        {
          "indexed": true,
          "internalType": "address",
          "name": "from",
          "type": "address"
        },
        {
          "indexed": false,
          "internalType": "uint256",
          "name": "timestamp",
          "type": "uint256"
        },
        {
          "indexed": false,
          "internalType": "string",
          "name": "message",
          "type": "string"
        }
      ],
      "name": "NewWave",
      "type": "event"
    },
    {
      "inputs": [],
      "name": "getAllWaves",
      "outputs": [
        {
          "components": [
            {
              "internalType": "address",
              "name": "waver",
              "type": "address"
            },
            {
              "internalType": "string",
              "name": "message",
              "type": "string"
            },
            {
              "internalType": "uint256",
              "name": "timestamp",
              "type": "uint256"
            }
          ],
          "internalType": "struct WavePortal.Wave[]",
          "name": "",
          "type": "tuple[]"
        }
      ],
      "stateMutability": "view",
      "type": "function"
    },
    {
      "inputs": [],
      "name": "getWaves",
      "outputs": [
        {
          "internalType": "uint256",
          "name": "",
          "type": "uint256"
        }
      ],
      "stateMutability": "view",
      "type": "function"
    },
    {
      "inputs": [
        {
          "internalType": "string",
          "name": "_message",
          "type": "string"
        }
      ],
      "name": "wave",
      "outputs": [],
      "stateMutability": "nonpayable",
      "type": "function"
    }
  ],
  "bytecode": "0x608060405234801561001057600080fd5b506100596040518060400160405280601981526020017f4920414d20534d41525420434f4e54524143542e20504f472e0000000000000081525061005e60201b6103701760201c565b6101e1565b6100fa81604051602401610072919061015f565b6040516020818303038152906040527f41304fac000000000000000000000000000000000000000000000000000000007bffffffffffffffffffffffffffffffffffffffffffffffffffffffff19166020820180517bffffffffffffffffffffffffffffffffffffffffffffffffffffffff83818316178352505050506100fd60201b60201c565b50565b60008151905060006a636f6e736f6c652e6c6f679050602083016000808483855afa5050505050565b600061013182610181565b61013b818561018c565b935061014b81856020860161019d565b610154816101d0565b840191505092915050565b600060208201905081810360008301526101798184610126565b905092915050565b600081519050919050565b600082825260208201905092915050565b60005b838110156101bb5780820151818401526020810190506101a0565b838111156101ca576000848401525b50505050565b6000601f19601f8301169050919050565b610b1980620001f16000396000f3fe608060405234801561001057600080fd5b50600436106100415760003560e01c8063449d46c014610046578063a9d42f7e14610062578063bd43a90814610080575b600080fd5b610060600480360381019061005b91906105dc565b61009e565b005b61006a610216565b604051610077919061082d565b60405180910390f35b61008861021f565b60405161009591906107a4565b60405180910390f35b60016000808282546100b0919061093f565b925050819055506100f76040518060400160405280601681526020017f257320776176656420772f206d657373616765202573000000000000000000008152503383610409565b600160405180606001604052803373ffffffffffffffffffffffffffffffffffffffff16815260200183815260200142815250908060018154018082558091505060019003906000526020600020906003020160009091909190915060008201518160000160006101000a81548173ffffffffffffffffffffffffffffffffffffffff021916908373ffffffffffffffffffffffffffffffffffffffff16021790555060208201518160010190805190602001906101b69291906104d1565b506040820151816002015550503373ffffffffffffffffffffffffffffffffffffffff167f5f7e16dc676677766a70e9c5628aa6c54ddb8b6e5188e2ae1e1f17f1ffbea716428360405161020b929190610848565b60405180910390a250565b60008054905090565b60606001805480602002602001604051908101604052809291908181526020016000905b8282101561036757838290600052602060002090600302016040518060600160405290816000820160009054906101000a900473ffffffffffffffffffffffffffffffffffffffff1673ffffffffffffffffffffffffffffffffffffffff1673ffffffffffffffffffffffffffffffffffffffff1681526020016001820180546102cc90610a13565b80601f01602080910402602001604051908101604052809291908181526020018280546102f890610a13565b80156103455780601f1061031a57610100808354040283529160200191610345565b820191906000526020600020905b81548152906001019060200180831161032857829003601f168201915b5050505050815260200160028201548152505081526020019060010190610243565b50505050905090565b6104068160405160240161038491906107c6565b6040516020818303038152906040527f41304fac000000000000000000000000000000000000000000000000000000007bffffffffffffffffffffffffffffffffffffffffffffffffffffffff19166020820180517bffffffffffffffffffffffffffffffffffffffffffffffffffffffff83818316178352505050506104a8565b50565b6104a3838383604051602401610421939291906107e8565b6040516020818303038152906040527fe0e9ad4f000000000000000000000000000000000000000000000000000000007bffffffffffffffffffffffffffffffffffffffffffffffffffffffff19166020820180517bffffffffffffffffffffffffffffffffffffffffffffffffffffffff83818316178352505050506104a8565b505050565b60008151905060006a636f6e736f6c652e6c6f679050602083016000808483855afa5050505050565b8280546104dd90610a13565b90600052602060002090601f0160209004810192826104ff5760008555610546565b82601f1061051857805160ff1916838001178555610546565b82800160010185558215610546579182015b8281111561054557825182559160200191906001019061052a565b5b5090506105539190610557565b5090565b5b80821115610570576000816000905550600101610558565b5090565b6000610587610582846108a9565b610878565b90508281526020810184848401111561059f57600080fd5b6105aa8482856109d1565b509392505050565b600082601f8301126105c357600080fd5b81356105d3848260208601610574565b91505092915050565b6000602082840312156105ee57600080fd5b600082013567ffffffffffffffff81111561060857600080fd5b610614848285016105b2565b91505092915050565b60006106298383610736565b905092915050565b61063a81610995565b82525050565b61064981610995565b82525050565b600061065a826108e9565b610664818561090c565b935083602082028501610676856108d9565b8060005b858110156106b25784840389528151610693858261061d565b945061069e836108ff565b925060208a0199505060018101905061067a565b50829750879550505050505092915050565b60006106cf826108f4565b6106d9818561091d565b93506106e98185602086016109e0565b6106f281610ad2565b840191505092915050565b6000610708826108f4565b610712818561092e565b93506107228185602086016109e0565b61072b81610ad2565b840191505092915050565b600060608301600083015161074e6000860182610631565b506020830151848203602086015261076682826106c4565b915050604083015161077b6040860182610786565b508091505092915050565b61078f816109c7565b82525050565b61079e816109c7565b82525050565b600060208201905081810360008301526107be818461064f565b905092915050565b600060208201905081810360008301526107e081846106fd565b905092915050565b6000606082019050818103600083015261080281866106fd565b90506108116020830185610640565b818103604083015261082381846106fd565b9050949350505050565b60006020820190506108426000830184610795565b92915050565b600060408201905061085d6000830185610795565b818103602083015261086f81846106fd565b90509392505050565b6000604051905081810181811067ffffffffffffffff8211171561089f5761089e610aa3565b5b8060405250919050565b600067ffffffffffffffff8211156108c4576108c3610aa3565b5b601f19601f8301169050602081019050919050565b6000819050602082019050919050565b600081519050919050565b600081519050919050565b6000602082019050919050565b600082825260208201905092915050565b600082825260208201905092915050565b600082825260208201905092915050565b600061094a826109c7565b9150610955836109c7565b9250827fffffffffffffffffffffffffffffffffffffffffffffffffffffffffffffffff0382111561098a57610989610a45565b5b828201905092915050565b60006109a0826109a7565b9050919050565b600073ffffffffffffffffffffffffffffffffffffffff82169050919050565b6000819050919050565b82818337600083830152505050565b60005b838110156109fe5780820151818401526020810190506109e3565b83811115610a0d576000848401525b50505050565b60006002820490506001821680610a2b57607f821691505b60208210811415610a3f57610a3e610a74565b5b50919050565b7f4e487b7100000000000000000000000000000000000000000000000000000000600052601160045260246000fd5b7f4e487b7100000000000000000000000000000000000000000000000000000000600052602260045260246000fd5b7f4e487b7100000000000000000000000000000000000000000000000000000000600052604160045260246000fd5b6000601f19601f830116905091905056fea26469706673582212204e99980c29d66240f7a98a4a18f60900be7c44dd4fa2479becb80d5583b558e264736f6c63430008000033",
  "linkReferences": {},
  "deployedLinkReferences": {}
}